{
    "_format": "hh-sol-artifact-1",
    "contractName": "TokenFactory",
    "sourceName": "contracts/TokenFactory.sol",
    "abi": [
        {
            "inputs": [],
            "stateMutability": "nonpayable",
            "type": "constructor"
        },
        {
            "inputs": [
                {
                    "internalType": "address",
                    "name": "owner",
                    "type": "address"
                }
            ],
            "name": "OwnableInvalidOwner",
            "type": "error"
        },
        {
            "inputs": [
                {
                    "internalType": "address",
                    "name": "account",
                    "type": "address"
                }
            ],
            "name": "OwnableUnauthorizedAccount",
            "type": "error"
        },
        {
            "anonymous": false,
            "inputs": [
                {
                    "indexed": true,
                    "internalType": "address",
                    "name": "previousOwner",
                    "type": "address"
                },
                {
                    "indexed": true,
                    "internalType": "address",
                    "name": "newOwner",
                    "type": "address"
                }
            ],
            "name": "OwnershipTransferred",
            "type": "event"
        },
        {
            "anonymous": false,
            "inputs": [
                {
                    "indexed": true,
                    "internalType": "address",
                    "name": "tokenAddress",
                    "type": "address"
                },
                {
                    "indexed": false,
                    "internalType": "string",
                    "name": "name",
                    "type": "string"
                },
                {
                    "indexed": false,
                    "internalType": "string",
                    "name": "symbol",
                    "type": "string"
                },
                {
                    "indexed": false,
                    "internalType": "uint8",
                    "name": "decimals",
                    "type": "uint8"
                },
                {
                    "indexed": false,
                    "internalType": "uint256",
                    "name": "totalSupply",
                    "type": "uint256"
                },
                {
                    "indexed": true,
                    "internalType": "address",
                    "name": "creator",
                    "type": "address"
                }
            ],
            "name": "TokenCreated",
            "type": "event"
        },
        {
            "inputs": [
                {
                    "internalType": "string",
                    "name": "name",
                    "type": "string"
                },
                {
                    "internalType": "string",
                    "name": "symbol",
                    "type": "string"
                },
                {
                    "internalType": "uint8",
                    "name": "decimals",
                    "type": "uint8"
                },
                {
                    "internalType": "uint256",
                    "name": "totalSupply",
                    "type": "uint256"
                },
                {
                    "internalType": "address",
                    "name": "creator",
                    "type": "address"
                }
            ],
            "name": "createToken",
            "outputs": [
                {
                    "internalType": "address",
                    "name": "",
                    "type": "address"
                }
            ],
            "stateMutability": "nonpayable",
            "type": "function"
        },
        {
            "inputs": [],
            "name": "getAllTokens",
            "outputs": [
                {
                    "components": [
                        {
                            "internalType": "address",
                            "name": "tokenAddress",
                            "type": "address"
                        },
                        {
                            "internalType": "string",
                            "name": "name",
                            "type": "string"
                        },
                        {
                            "internalType": "string",
                            "name": "symbol",
                            "type": "string"
                        },
                        {
                            "internalType": "uint8",
                            "name": "decimals",
                            "type": "uint8"
                        },
                        {
                            "internalType": "uint256",
                            "name": "totalSupply",
                            "type": "uint256"
                        },
                        {
                            "internalType": "address",
                            "name": "creator",
                            "type": "address"
                        }
                    ],
                    "internalType": "struct TokenFactory.TokenInfo[]",
                    "name": "",
                    "type": "tuple[]"
                }
            ],
            "stateMutability": "view",
            "type": "function"
        },
        {
            "inputs": [],
            "name": "owner",
            "outputs": [
                {
                    "internalType": "address",
                    "name": "",
                    "type": "address"
                }
            ],
            "stateMutability": "view",
            "type": "function"
        },
        {
            "inputs": [],
            "name": "renounceOwnership",
            "outputs": [],
            "stateMutability": "nonpayable",
            "type": "function"
        },
        {
            "inputs": [
                {
                    "internalType": "uint256",
                    "name": "",
                    "type": "uint256"
                }
            ],
            "name": "tokens",
            "outputs": [
                {
                    "internalType": "address",
                    "name": "tokenAddress",
                    "type": "address"
                },
                {
                    "internalType": "string",
                    "name": "name",
                    "type": "string"
                },
                {
                    "internalType": "string",
                    "name": "symbol",
                    "type": "string"
                },
                {
                    "internalType": "uint8",
                    "name": "decimals",
                    "type": "uint8"
                },
                {
                    "internalType": "uint256",
                    "name": "totalSupply",
                    "type": "uint256"
                },
                {
                    "internalType": "address",
                    "name": "creator",
                    "type": "address"
                }
            ],
            "stateMutability": "view",
            "type": "function"
        },
        {
            "inputs": [
                {
                    "internalType": "address",
                    "name": "newOwner",
                    "type": "address"
                }
            ],
            "name": "transferOwnership",
            "outputs": [],
            "stateMutability": "nonpayable",
            "type": "function"
        }
    ],
    "bytecode": "0x608060405234801561001057600080fd5b5033600073ffffffffffffffffffffffffffffffffffffffff168173ffffffffffffffffffffffffffffffffffffffff16036100845760006040517f1e4fbdf700000000000000000000000000000000000000000000000000000000815260040161007b919061019e565b60405180910390fd5b6100938161009960201b60201c565b506101b9565b60008060009054906101000a900473ffffffffffffffffffffffffffffffffffffffff169050816000806101000a81548173ffffffffffffffffffffffffffffffffffffffff021916908373ffffffffffffffffffffffffffffffffffffffff1602179055508173ffffffffffffffffffffffffffffffffffffffff168173ffffffffffffffffffffffffffffffffffffffff167f8be0079c531659141344cd1fd0a4f28419497f9722a3daafe3b4186f6b6457e060405160405180910390a35050565b600073ffffffffffffffffffffffffffffffffffffffff82169050919050565b60006101888261015d565b9050919050565b6101988161017d565b82525050565b60006020820190506101b3600083018461018f565b92915050565b6131c3806101c86000396000f3fe608060405234801561001057600080fd5b50600436106100625760003560e01c80632a5c792a146100675780634f64b2be146100855780635165749e146100ba578063715018a6146100ea5780638da5cb5b146100f4578063f2fde38b14610112575b600080fd5b61006f61012e565b60405161007c9190610c17565b60405180910390f35b61009f600480360381019061009a9190610c79565b610384565b6040516100b196959493929190610d1d565b60405180910390f35b6100d460048036038101906100cf9190610f19565b61052d565b6040516100e19190610fcc565b60405180910390f35b6100f261079c565b005b6100fc6107b0565b6040516101099190610fcc565b60405180910390f35b61012c60048036038101906101279190610fe7565b6107d9565b005b60606001805480602002602001604051908101604052809291908181526020016000905b8282101561037b57838290600052602060002090600602016040518060c00160405290816000820160009054906101000a900473ffffffffffffffffffffffffffffffffffffffff1673ffffffffffffffffffffffffffffffffffffffff1673ffffffffffffffffffffffffffffffffffffffff1681526020016001820180546101db90611043565b80601f016020809104026020016040519081016040528092919081815260200182805461020790611043565b80156102545780601f1061022957610100808354040283529160200191610254565b820191906000526020600020905b81548152906001019060200180831161023757829003601f168201915b5050505050815260200160028201805461026d90611043565b80601f016020809104026020016040519081016040528092919081815260200182805461029990611043565b80156102e65780601f106102bb576101008083540402835291602001916102e6565b820191906000526020600020905b8154815290600101906020018083116102c957829003601f168201915b505050505081526020016003820160009054906101000a900460ff1660ff1660ff168152602001600482015481526020016005820160009054906101000a900473ffffffffffffffffffffffffffffffffffffffff1673ffffffffffffffffffffffffffffffffffffffff1673ffffffffffffffffffffffffffffffffffffffff168152505081526020019060010190610152565b50505050905090565b6001818154811061039457600080fd5b90600052602060002090600602016000915090508060000160009054906101000a900473ffffffffffffffffffffffffffffffffffffffff16908060010180546103dd90611043565b80601f016020809104026020016040519081016040528092919081815260200182805461040990611043565b80156104565780601f1061042b57610100808354040283529160200191610456565b820191906000526020600020905b81548152906001019060200180831161043957829003601f168201915b50505050509080600201805461046b90611043565b80601f016020809104026020016040519081016040528092919081815260200182805461049790611043565b80156104e45780601f106104b9576101008083540402835291602001916104e4565b820191906000526020600020905b8154815290600101906020018083116104c757829003601f168201915b5050505050908060030160009054906101000a900460ff16908060040154908060050160009054906101000a900473ffffffffffffffffffffffffffffffffffffffff16905086565b600080600073ffffffffffffffffffffffffffffffffffffffff168373ffffffffffffffffffffffffffffffffffffffff16036105715761056c6107b0565b610573565b825b905060008787878785604051610588906109b2565b610596959493929190611074565b604051809103906000f0801580156105b2573d6000803e3d6000fd5b50905060016040518060c001604052808373ffffffffffffffffffffffffffffffffffffffff1681526020018a81526020018981526020018860ff1681526020018781526020018473ffffffffffffffffffffffffffffffffffffffff16815250908060018154018082558091505060019003906000526020600020906006020160009091909190915060008201518160000160006101000a81548173ffffffffffffffffffffffffffffffffffffffff021916908373ffffffffffffffffffffffffffffffffffffffff16021790555060208201518160010190816106989190611281565b5060408201518160020190816106ae9190611281565b5060608201518160030160006101000a81548160ff021916908360ff1602179055506080820151816004015560a08201518160050160006101000a81548173ffffffffffffffffffffffffffffffffffffffff021916908373ffffffffffffffffffffffffffffffffffffffff16021790555050508173ffffffffffffffffffffffffffffffffffffffff168173ffffffffffffffffffffffffffffffffffffffff167f96277b960035611e3efe74cc6f4dc654567ad6dfe7e479ece4303ecd0321ec128a8a8a8a6040516107869493929190611353565b60405180910390a3809250505095945050505050565b6107a461085f565b6107ae60006108e6565b565b60008060009054906101000a900473ffffffffffffffffffffffffffffffffffffffff16905090565b6107e161085f565b600073ffffffffffffffffffffffffffffffffffffffff168173ffffffffffffffffffffffffffffffffffffffff16036108535760006040517f1e4fbdf700000000000000000000000000000000000000000000000000000000815260040161084a9190610fcc565b60405180910390fd5b61085c816108e6565b50565b6108676109aa565b73ffffffffffffffffffffffffffffffffffffffff166108856107b0565b73ffffffffffffffffffffffffffffffffffffffff16146108e4576108a86109aa565b6040517f118cdaa70000000000000000000000000000000000000000000000000000000081526004016108db9190610fcc565b60405180910390fd5b565b60008060009054906101000a900473ffffffffffffffffffffffffffffffffffffffff169050816000806101000a81548173ffffffffffffffffffffffffffffffffffffffff021916908373ffffffffffffffffffffffffffffffffffffffff1602179055508173ffffffffffffffffffffffffffffffffffffffff168173ffffffffffffffffffffffffffffffffffffffff167f8be0079c531659141344cd1fd0a4f28419497f9722a3daafe3b4186f6b6457e060405160405180910390a35050565b600033905090565b611de7806113a783390190565b600081519050919050565b600082825260208201905092915050565b6000819050602082019050919050565b600073ffffffffffffffffffffffffffffffffffffffff82169050919050565b6000610a16826109eb565b9050919050565b610a2681610a0b565b82525050565b600081519050919050565b600082825260208201905092915050565b60005b83811015610a66578082015181840152602081019050610a4b565b60008484015250505050565b6000601f19601f8301169050919050565b6000610a8e82610a2c565b610a988185610a37565b9350610aa8818560208601610a48565b610ab181610a72565b840191505092915050565b600060ff82169050919050565b610ad281610abc565b82525050565b6000819050919050565b610aeb81610ad8565b82525050565b600060c083016000830151610b096000860182610a1d565b5060208301518482036020860152610b218282610a83565b91505060408301518482036040860152610b3b8282610a83565b9150506060830151610b506060860182610ac9565b506080830151610b636080860182610ae2565b5060a0830151610b7660a0860182610a1d565b508091505092915050565b6000610b8d8383610af1565b905092915050565b6000602082019050919050565b6000610bad826109bf565b610bb781856109ca565b935083602082028501610bc9856109db565b8060005b85811015610c055784840389528151610be68582610b81565b9450610bf183610b95565b925060208a01995050600181019050610bcd565b50829750879550505050505092915050565b60006020820190508181036000830152610c318184610ba2565b905092915050565b6000604051905090565b600080fd5b600080fd5b610c5681610ad8565b8114610c6157600080fd5b50565b600081359050610c7381610c4d565b92915050565b600060208284031215610c8f57610c8e610c43565b5b6000610c9d84828501610c64565b91505092915050565b610caf81610a0b565b82525050565b600082825260208201905092915050565b6000610cd182610a2c565b610cdb8185610cb5565b9350610ceb818560208601610a48565b610cf481610a72565b840191505092915050565b610d0881610abc565b82525050565b610d1781610ad8565b82525050565b600060c082019050610d326000830189610ca6565b8181036020830152610d448188610cc6565b90508181036040830152610d588187610cc6565b9050610d676060830186610cff565b610d746080830185610d0e565b610d8160a0830184610ca6565b979650505050505050565b600080fd5b600080fd5b7f4e487b7100000000000000000000000000000000000000000000000000000000600052604160045260246000fd5b610dce82610a72565b810181811067ffffffffffffffff82111715610ded57610dec610d96565b5b80604052505050565b6000610e00610c39565b9050610e0c8282610dc5565b919050565b600067ffffffffffffffff821115610e2c57610e2b610d96565b5b610e3582610a72565b9050602081019050919050565b82818337600083830152505050565b6000610e64610e5f84610e11565b610df6565b905082815260208101848484011115610e8057610e7f610d91565b5b610e8b848285610e42565b509392505050565b600082601f830112610ea857610ea7610d8c565b5b8135610eb8848260208601610e51565b91505092915050565b610eca81610abc565b8114610ed557600080fd5b50565b600081359050610ee781610ec1565b92915050565b610ef681610a0b565b8114610f0157600080fd5b50565b600081359050610f1381610eed565b92915050565b600080600080600060a08688031215610f3557610f34610c43565b5b600086013567ffffffffffffffff811115610f5357610f52610c48565b5b610f5f88828901610e93565b955050602086013567ffffffffffffffff811115610f8057610f7f610c48565b5b610f8c88828901610e93565b9450506040610f9d88828901610ed8565b9350506060610fae88828901610c64565b9250506080610fbf88828901610f04565b9150509295509295909350565b6000602082019050610fe16000830184610ca6565b92915050565b600060208284031215610ffd57610ffc610c43565b5b600061100b84828501610f04565b91505092915050565b7f4e487b7100000000000000000000000000000000000000000000000000000000600052602260045260246000fd5b6000600282049050600182168061105b57607f821691505b60208210810361106e5761106d611014565b5b50919050565b600060a082019050818103600083015261108e8188610cc6565b905081810360208301526110a28187610cc6565b90506110b16040830186610cff565b6110be6060830185610d0e565b6110cb6080830184610ca6565b9695505050505050565b60008190508160005260206000209050919050565b60006020601f8301049050919050565b600082821b905092915050565b6000600883026111377fffffffffffffffffffffffffffffffffffffffffffffffffffffffffffffffff826110fa565b61114186836110fa565b95508019841693508086168417925050509392505050565b6000819050919050565b600061117e61117961117484610ad8565b611159565b610ad8565b9050919050565b6000819050919050565b61119883611163565b6111ac6111a482611185565b848454611107565b825550505050565b600090565b6111c16111b4565b6111cc81848461118f565b505050565b5b818110156111f0576111e56000826111b9565b6001810190506111d2565b5050565b601f82111561123557611206816110d5565b61120f846110ea565b8101602085101561121e578190505b61123261122a856110ea565b8301826111d1565b50505b505050565b600082821c905092915050565b60006112586000198460080261123a565b1980831691505092915050565b60006112718383611247565b9150826002028217905092915050565b61128a82610a2c565b67ffffffffffffffff8111156112a3576112a2610d96565b5b6112ad8254611043565b6112b88282856111f4565b600060209050601f8311600181146112eb57600084156112d9578287015190505b6112e38582611265565b86555061134b565b601f1984166112f9866110d5565b60005b82811015611321578489015182556001820191506020850194506020810190506112fc565b8683101561133e578489015161133a601f891682611247565b8355505b6001600288020188555050505b505050505050565b6000608082019050818103600083015261136d8187610cc6565b905081810360208301526113818186610cc6565b90506113906040830185610cff565b61139d6060830184610d0e565b9594505050505056fe608060405234801561001057600080fd5b50604051611de7380380611de7833981810160405281019061003291906106c2565b8085858160039081610044919061098c565b508060049081610054919061098c565b505050600073ffffffffffffffffffffffffffffffffffffffff168173ffffffffffffffffffffffffffffffffffffffff16036100c95760006040517f1e4fbdf70000000000000000000000000000000000000000000000000000000081526004016100c09190610a6d565b60405180910390fd5b6100d88161010d60201b60201c565b50610103818460ff16600a6100ed9190610bea565b846100f89190610c35565b6101d360201b60201c565b5050505050610d0c565b6000600560009054906101000a900473ffffffffffffffffffffffffffffffffffffffff16905081600560006101000a81548173ffffffffffffffffffffffffffffffffffffffff021916908373ffffffffffffffffffffffffffffffffffffffff1602179055508173ffffffffffffffffffffffffffffffffffffffff168173ffffffffffffffffffffffffffffffffffffffff167f8be0079c531659141344cd1fd0a4f28419497f9722a3daafe3b4186f6b6457e060405160405180910390a35050565b600073ffffffffffffffffffffffffffffffffffffffff168273ffffffffffffffffffffffffffffffffffffffff16036102455760006040517fec442f0500000000000000000000000000000000000000000000000000000000815260040161023c9190610a6d565b60405180910390fd5b6102576000838361025b60201b60201c565b5050565b600073ffffffffffffffffffffffffffffffffffffffff168373ffffffffffffffffffffffffffffffffffffffff16036102ad5780600260008282546102a19190610c77565b92505081905550610380565b60008060008573ffffffffffffffffffffffffffffffffffffffff1673ffffffffffffffffffffffffffffffffffffffff16815260200190815260200160002054905081811015610339578381836040517fe450d38c00000000000000000000000000000000000000000000000000000000815260040161033093929190610cba565b60405180910390fd5b8181036000808673ffffffffffffffffffffffffffffffffffffffff1673ffffffffffffffffffffffffffffffffffffffff16815260200190815260200160002081905550505b600073ffffffffffffffffffffffffffffffffffffffff168273ffffffffffffffffffffffffffffffffffffffff16036103c95780600260008282540392505081905550610416565b806000808473ffffffffffffffffffffffffffffffffffffffff1673ffffffffffffffffffffffffffffffffffffffff168152602001908152602001600020600082825401925050819055505b8173ffffffffffffffffffffffffffffffffffffffff168373ffffffffffffffffffffffffffffffffffffffff167fddf252ad1be2c89b69c2b068fc378daa952ba7f163c4a11628f55a4df523b3ef836040516104739190610cf1565b60405180910390a3505050565b6000604051905090565b600080fd5b600080fd5b600080fd5b600080fd5b6000601f19601f8301169050919050565b7f4e487b7100000000000000000000000000000000000000000000000000000000600052604160045260246000fd5b6104e78261049e565b810181811067ffffffffffffffff82111715610506576105056104af565b5b80604052505050565b6000610519610480565b905061052582826104de565b919050565b600067ffffffffffffffff821115610545576105446104af565b5b61054e8261049e565b9050602081019050919050565b60005b8381101561057957808201518184015260208101905061055e565b60008484015250505050565b60006105986105938461052a565b61050f565b9050828152602081018484840111156105b4576105b3610499565b5b6105bf84828561055b565b509392505050565b600082601f8301126105dc576105db610494565b5b81516105ec848260208601610585565b91505092915050565b600060ff82169050919050565b61060b816105f5565b811461061657600080fd5b50565b60008151905061062881610602565b92915050565b6000819050919050565b6106418161062e565b811461064c57600080fd5b50565b60008151905061065e81610638565b92915050565b600073ffffffffffffffffffffffffffffffffffffffff82169050919050565b600061068f82610664565b9050919050565b61069f81610684565b81146106aa57600080fd5b50565b6000815190506106bc81610696565b92915050565b600080600080600060a086880312156106de576106dd61048a565b5b600086015167ffffffffffffffff8111156106fc576106fb61048f565b5b610708888289016105c7565b955050602086015167ffffffffffffffff8111156107295761072861048f565b5b610735888289016105c7565b945050604061074688828901610619565b93505060606107578882890161064f565b9250506080610768888289016106ad565b9150509295509295909350565b600081519050919050565b7f4e487b7100000000000000000000000000000000000000000000000000000000600052602260045260246000fd5b600060028204905060018216806107c757607f821691505b6020821081036107da576107d9610780565b5b50919050565b60008190508160005260206000209050919050565b60006020601f8301049050919050565b600082821b905092915050565b6000600883026108427fffffffffffffffffffffffffffffffffffffffffffffffffffffffffffffffff82610805565b61084c8683610805565b95508019841693508086168417925050509392505050565b6000819050919050565b600061088961088461087f8461062e565b610864565b61062e565b9050919050565b6000819050919050565b6108a38361086e565b6108b76108af82610890565b848454610812565b825550505050565b600090565b6108cc6108bf565b6108d781848461089a565b505050565b5b818110156108fb576108f06000826108c4565b6001810190506108dd565b5050565b601f82111561094057610911816107e0565b61091a846107f5565b81016020851015610929578190505b61093d610935856107f5565b8301826108dc565b50505b505050565b600082821c905092915050565b600061096360001984600802610945565b1980831691505092915050565b600061097c8383610952565b9150826002028217905092915050565b61099582610775565b67ffffffffffffffff8111156109ae576109ad6104af565b5b6109b882546107af565b6109c38282856108ff565b600060209050601f8311600181146109f657600084156109e4578287015190505b6109ee8582610970565b865550610a56565b601f198416610a04866107e0565b60005b82811015610a2c57848901518255600182019150602085019450602081019050610a07565b86831015610a495784890151610a45601f891682610952565b8355505b6001600288020188555050505b505050505050565b610a6781610684565b82525050565b6000602082019050610a826000830184610a5e565b92915050565b7f4e487b7100000000000000000000000000000000000000000000000000000000600052601160045260246000fd5b60008160011c9050919050565b6000808291508390505b6001851115610b0e57808604811115610aea57610ae9610a88565b5b6001851615610af95780820291505b8081029050610b0785610ab7565b9450610ace565b94509492505050565b600082610b275760019050610be3565b81610b355760009050610be3565b8160018114610b4b5760028114610b5557610b84565b6001915050610be3565b60ff841115610b6757610b66610a88565b5b8360020a915084821115610b7e57610b7d610a88565b5b50610be3565b5060208310610133831016604e8410600b8410161715610bb95782820a905083811115610bb457610bb3610a88565b5b610be3565b610bc68484846001610ac4565b92509050818404811115610bdd57610bdc610a88565b5b81810290505b9392505050565b6000610bf58261062e565b9150610c008361062e565b9250610c2d7fffffffffffffffffffffffffffffffffffffffffffffffffffffffffffffffff8484610b17565b905092915050565b6000610c408261062e565b9150610c4b8361062e565b9250828202610c598161062e565b91508282048414831517610c7057610c6f610a88565b5b5092915050565b6000610c828261062e565b9150610c8d8361062e565b9250828201905080821115610ca557610ca4610a88565b5b92915050565b610cb48161062e565b82525050565b6000606082019050610ccf6000830186610a5e565b610cdc6020830185610cab565b610ce96040830184610cab565b949350505050565b6000602082019050610d066000830184610cab565b92915050565b6110cc80610d1b6000396000f3fe608060405234801561001057600080fd5b50600436106100b45760003560e01c8063715018a611610071578063715018a6146101a35780638da5cb5b146101ad57806395d89b41146101cb578063a9059cbb146101e9578063dd62ed3e14610219578063f2fde38b14610249576100b4565b806306fdde03146100b9578063095ea7b3146100d757806318160ddd1461010757806323b872dd14610125578063313ce5671461015557806370a0823114610173575b600080fd5b6100c1610265565b6040516100ce9190610d20565b60405180910390f35b6100f160048036038101906100ec9190610ddb565b6102f7565b6040516100fe9190610e36565b60405180910390f35b61010f61031a565b60405161011c9190610e60565b60405180910390f35b61013f600480360381019061013a9190610e7b565b610324565b60405161014c9190610e36565b60405180910390f35b61015d610353565b60405161016a9190610eea565b60405180910390f35b61018d60048036038101906101889190610f05565b61035c565b60405161019a9190610e60565b60405180910390f35b6101ab6103a4565b005b6101b56103b8565b6040516101c29190610f41565b60405180910390f35b6101d36103e2565b6040516101e09190610d20565b60405180910390f35b61020360048036038101906101fe9190610ddb565b610474565b6040516102109190610e36565b60405180910390f35b610233600480360381019061022e9190610f5c565b610497565b6040516102409190610e60565b60405180910390f35b610263600480360381019061025e9190610f05565b61051e565b005b60606003805461027490610fcb565b80601f01602080910402602001604051908101604052809291908181526020018280546102a090610fcb565b80156102ed5780601f106102c2576101008083540402835291602001916102ed565b820191906000526020600020905b8154815290600101906020018083116102d057829003601f168201915b5050505050905090565b6000806103026105a4565b905061030f8185856105ac565b600191505092915050565b6000600254905090565b60008061032f6105a4565b905061033c8582856105be565b610347858585610653565b60019150509392505050565b60006012905090565b60008060008373ffffffffffffffffffffffffffffffffffffffff1673ffffffffffffffffffffffffffffffffffffffff168152602001908152602001600020549050919050565b6103ac610747565b6103b660006107ce565b565b6000600560009054906101000a900473ffffffffffffffffffffffffffffffffffffffff16905090565b6060600480546103f190610fcb565b80601f016020809104026020016040519081016040528092919081815260200182805461041d90610fcb565b801561046a5780601f1061043f5761010080835404028352916020019161046a565b820191906000526020600020905b81548152906001019060200180831161044d57829003601f168201915b5050505050905090565b60008061047f6105a4565b905061048c818585610653565b600191505092915050565b6000600160008473ffffffffffffffffffffffffffffffffffffffff1673ffffffffffffffffffffffffffffffffffffffff16815260200190815260200160002060008373ffffffffffffffffffffffffffffffffffffffff1673ffffffffffffffffffffffffffffffffffffffff16815260200190815260200160002054905092915050565b610526610747565b600073ffffffffffffffffffffffffffffffffffffffff168173ffffffffffffffffffffffffffffffffffffffff16036105985760006040517f1e4fbdf700000000000000000000000000000000000000000000000000000000815260040161058f9190610f41565b60405180910390fd5b6105a1816107ce565b50565b600033905090565b6105b98383836001610894565b505050565b60006105ca8484610497565b90507fffffffffffffffffffffffffffffffffffffffffffffffffffffffffffffffff81101561064d578181101561063d578281836040517ffb8f41b200000000000000000000000000000000000000000000000000000000815260040161063493929190610ffc565b60405180910390fd5b61064c84848484036000610894565b5b50505050565b600073ffffffffffffffffffffffffffffffffffffffff168373ffffffffffffffffffffffffffffffffffffffff16036106c55760006040517f96c6fd1e0000000000000000000000000000000000000000000000000000000081526004016106bc9190610f41565b60405180910390fd5b600073ffffffffffffffffffffffffffffffffffffffff168273ffffffffffffffffffffffffffffffffffffffff16036107375760006040517fec442f0500000000000000000000000000000000000000000000000000000000815260040161072e9190610f41565b60405180910390fd5b610742838383610a6b565b505050565b61074f6105a4565b73ffffffffffffffffffffffffffffffffffffffff1661076d6103b8565b73ffffffffffffffffffffffffffffffffffffffff16146107cc576107906105a4565b6040517f118cdaa70000000000000000000000000000000000000000000000000000000081526004016107c39190610f41565b60405180910390fd5b565b6000600560009054906101000a900473ffffffffffffffffffffffffffffffffffffffff16905081600560006101000a81548173ffffffffffffffffffffffffffffffffffffffff021916908373ffffffffffffffffffffffffffffffffffffffff1602179055508173ffffffffffffffffffffffffffffffffffffffff168173ffffffffffffffffffffffffffffffffffffffff167f8be0079c531659141344cd1fd0a4f28419497f9722a3daafe3b4186f6b6457e060405160405180910390a35050565b600073ffffffffffffffffffffffffffffffffffffffff168473ffffffffffffffffffffffffffffffffffffffff16036109065760006040517fe602df050000000000000000000000000000000000000000000000000000000081526004016108fd9190610f41565b60405180910390fd5b600073ffffffffffffffffffffffffffffffffffffffff168373ffffffffffffffffffffffffffffffffffffffff16036109785760006040517f94280d6200000000000000000000000000000000000000000000000000000000815260040161096f9190610f41565b60405180910390fd5b81600160008673ffffffffffffffffffffffffffffffffffffffff1673ffffffffffffffffffffffffffffffffffffffff16815260200190815260200160002060008573ffffffffffffffffffffffffffffffffffffffff1673ffffffffffffffffffffffffffffffffffffffff168152602001908152602001600020819055508015610a65578273ffffffffffffffffffffffffffffffffffffffff168473ffffffffffffffffffffffffffffffffffffffff167f8c5be1e5ebec7d5bd14f71427d1e84f3dd0314c0f7b2291e5b200ac8c7c3b92584604051610a5c9190610e60565b60405180910390a35b50505050565b600073ffffffffffffffffffffffffffffffffffffffff168373ffffffffffffffffffffffffffffffffffffffff1603610abd578060026000828254610ab19190611062565b92505081905550610b90565b60008060008573ffffffffffffffffffffffffffffffffffffffff1673ffffffffffffffffffffffffffffffffffffffff16815260200190815260200160002054905081811015610b49578381836040517fe450d38c000000000000000000000000000000000000000000000000000000008152600401610b4093929190610ffc565b60405180910390fd5b8181036000808673ffffffffffffffffffffffffffffffffffffffff1673ffffffffffffffffffffffffffffffffffffffff16815260200190815260200160002081905550505b600073ffffffffffffffffffffffffffffffffffffffff168273ffffffffffffffffffffffffffffffffffffffff1603610bd95780600260008282540392505081905550610c26565b806000808473ffffffffffffffffffffffffffffffffffffffff1673ffffffffffffffffffffffffffffffffffffffff168152602001908152602001600020600082825401925050819055505b8173ffffffffffffffffffffffffffffffffffffffff168373ffffffffffffffffffffffffffffffffffffffff167fddf252ad1be2c89b69c2b068fc378daa952ba7f163c4a11628f55a4df523b3ef83604051610c839190610e60565b60405180910390a3505050565b600081519050919050565b600082825260208201905092915050565b60005b83811015610cca578082015181840152602081019050610caf565b60008484015250505050565b6000601f19601f8301169050919050565b6000610cf282610c90565b610cfc8185610c9b565b9350610d0c818560208601610cac565b610d1581610cd6565b840191505092915050565b60006020820190508181036000830152610d3a8184610ce7565b905092915050565b600080fd5b600073ffffffffffffffffffffffffffffffffffffffff82169050919050565b6000610d7282610d47565b9050919050565b610d8281610d67565b8114610d8d57600080fd5b50565b600081359050610d9f81610d79565b92915050565b6000819050919050565b610db881610da5565b8114610dc357600080fd5b50565b600081359050610dd581610daf565b92915050565b60008060408385031215610df257610df1610d42565b5b6000610e0085828601610d90565b9250506020610e1185828601610dc6565b9150509250929050565b60008115159050919050565b610e3081610e1b565b82525050565b6000602082019050610e4b6000830184610e27565b92915050565b610e5a81610da5565b82525050565b6000602082019050610e756000830184610e51565b92915050565b600080600060608486031215610e9457610e93610d42565b5b6000610ea286828701610d90565b9350506020610eb386828701610d90565b9250506040610ec486828701610dc6565b9150509250925092565b600060ff82169050919050565b610ee481610ece565b82525050565b6000602082019050610eff6000830184610edb565b92915050565b600060208284031215610f1b57610f1a610d42565b5b6000610f2984828501610d90565b91505092915050565b610f3b81610d67565b82525050565b6000602082019050610f566000830184610f32565b92915050565b60008060408385031215610f7357610f72610d42565b5b6000610f8185828601610d90565b9250506020610f9285828601610d90565b9150509250929050565b7f4e487b7100000000000000000000000000000000000000000000000000000000600052602260045260246000fd5b60006002820490506001821680610fe357607f821691505b602082108103610ff657610ff5610f9c565b5b50919050565b60006060820190506110116000830186610f32565b61101e6020830185610e51565b61102b6040830184610e51565b949350505050565b7f4e487b7100000000000000000000000000000000000000000000000000000000600052601160045260246000fd5b600061106d82610da5565b915061107883610da5565b92508282019050808211156110905761108f611033565b5b9291505056fea2646970667358221220916dd1d6a026f90696e3f56a7e629bdaaa7b0049a3cd70137d37dffbc8293ea264736f6c634300081c0033a26469706673582212205447add937fbb53057d49db3829fc70f0899eed4d9564631a34d9537a50e0a9d64736f6c634300081c0033",
    "linkReferences": {},
    "deployedLinkReferences": {}
}